{
  "contractName": "Greeter",
  "abi": [
    {
      "constant": true,
      "inputs": [],
      "name": "userName",
      "outputs": [
        {
          "name": "",
          "type": "string"
        }
      ],
      "payable": false,
      "stateMutability": "view",
      "type": "function",
      "signature": "0x70019b35"
    },
    {
      "inputs": [],
      "payable": false,
      "stateMutability": "nonpayable",
      "type": "constructor",
      "signature": "constructor"
    },
    {
      "constant": false,
      "inputs": [
        {
          "name": "name",
          "type": "string"
        }
      ],
      "name": "setName",
      "outputs": [],
      "payable": false,
      "stateMutability": "nonpayable",
      "type": "function",
      "signature": "0xc47f0027"
    },
    {
      "constant": true,
      "inputs": [],
      "name": "greetUser",
      "outputs": [
        {
          "name": "greetingMsg_",
          "type": "string"
        }
      ],
      "payable": false,
      "stateMutability": "view",
      "type": "function",
      "signature": "0xa12d5ffd"
    }
  ],
  "bytecode": "0x608060405234801561001057600080fd5b506040805190810160405280600881526020017f57656c636f6d65200000000000000000000000000000000000000000000000008152506000908051906020019061005c9291906100ae565b506040805190810160405280600781526020017f4e4f204e414d4500000000000000000000000000000000000000000000000000815250600190805190602001906100a89291906100ae565b50610153565b828054600181600116156101000203166002900490600052602060002090601f016020900481019282601f106100ef57805160ff191683800117855561011d565b8280016001018555821561011d579182015b8281111561011c578251825591602001919060010190610101565b5b50905061012a919061012e565b5090565b61015091905b8082111561014c576000816000905550600101610134565b5090565b90565b6105e1806101626000396000f3fe608060405260043610610057576000357c0100000000000000000000000000000000000000000000000000000000900463ffffffff16806370019b351461005c578063a12d5ffd146100ec578063c47f00271461017c575b600080fd5b34801561006857600080fd5b50610071610244565b6040518080602001828103825283818151815260200191508051906020019080838360005b838110156100b1578082015181840152602081019050610096565b50505050905090810190601f1680156100de5780820380516001836020036101000a031916815260200191505b509250505060405180910390f35b3480156100f857600080fd5b506101016102e2565b6040518080602001828103825283818151815260200191508051906020019080838360005b83811015610141578082015181840152602081019050610126565b50505050905090810190601f16801561016e5780820380516001836020036101000a031916815260200191505b509250505060405180910390f35b34801561018857600080fd5b506102426004803603602081101561019f57600080fd5b81019080803590602001906401000000008111156101bc57600080fd5b8201836020820111156101ce57600080fd5b803590602001918460018302840111640100000000831117156101f057600080fd5b91908080601f016020809104026020016040519081016040528093929190818152602001838380828437600081840152601f19601f82011690508083019250505050505050919291929050505061042a565b005b60018054600181600116156101000203166002900480601f0160208091040260200160405190810160405280929190818152602001828054600181600116156101000203166002900480156102da5780601f106102af576101008083540402835291602001916102da565b820191906000526020600020905b8154815290600101906020018083116102bd57829003601f168201915b505050505081565b606061042260008054600181600116156101000203166002900480601f01602080910402602001604051908101604052809291908181526020018280546001816001161561010002031660029004801561037d5780601f106103525761010080835404028352916020019161037d565b820191906000526020600020905b81548152906001019060200180831161036057829003601f168201915b505050505060018054600181600116156101000203166002900480601f0160208091040260200160405190810160405280929190818152602001828054600181600116156101000203166002900480156104185780601f106103ed57610100808354040283529160200191610418565b820191906000526020600020905b8154815290600101906020018083116103fb57829003601f168201915b5050505050610444565b905080905090565b8060019080519060200190610440929190610510565b5050565b606082826040516020018083805190602001908083835b602083101515610480578051825260208201915060208101905060208303925061045b565b6001836020036101000a03801982511681845116808217855250505050505090500182805190602001908083835b6020831015156104d357805182526020820191506020810190506020830392506104ae565b6001836020036101000a03801982511681845116808217855250505050505090500192505050604051602081830303815290604052905092915050565b828054600181600116156101000203166002900490600052602060002090601f016020900481019282601f1061055157805160ff191683800117855561057f565b8280016001018555821561057f579182015b8281111561057e578251825591602001919060010190610563565b5b50905061058c9190610590565b5090565b6105b291905b808211156105ae576000816000905550600101610596565b5090565b9056fea165627a7a723058208f306a9a5e4c91c4c0976983265d4970745c6c9433b7f1d484524c32e0859d4a0029",
  "source": "pragma solidity >=0.4.0 <0.6.0;\n\nimport \"./ConcatLib.sol\";\n\ncontract Greeter {\n    string private greetingPrefix;\n    string public userName;\n    \n    //Constructor \n    constructor() public {\n        greetingPrefix = \"Welcome \";\n        userName = \"NO NAME\";\n    }\n    \n    function setName(string memory name) public {\n        userName = name;\n    }\n    \n    function greetUser() public  view returns (string memory greetingMsg_) {\n        greetingMsg_ = ConcatLib.concat(greetingPrefix, userName);\n        return greetingMsg_;\n    }\n}",
  "sourcePath": "/home/ysfdev/projects/blockchain/ethereum-contracts-new/contracts/Greeter.sol",
  "compiler": {
    "name": "solc",
    "version": "0.5.0+commit.1d4f565a.Emscripten.clang"
  },
  "schemaVersion": "3.0.1",
  "updatedAt": "2019-01-05T23:57:51.743Z",
  "devdoc": {
    "methods": {}
  },
  "userdoc": {
    "methods": {}
  }
}