{
  "contractName": "ScoreTracker",
  "abi": [
    {
      "constant": false,
      "inputs": [
        {
          "name": "name",
          "type": "string"
        },
        {
          "name": "score",
          "type": "int256"
        }
      ],
      "name": "addScore",
      "outputs": [],
      "payable": false,
      "stateMutability": "nonpayable",
      "type": "function",
      "signature": "0xfa052fac"
    },
    {
      "constant": true,
      "inputs": [
        {
          "name": "name",
          "type": "string"
        }
      ],
      "name": "getScore",
      "outputs": [
        {
          "name": "",
          "type": "int256"
        }
      ],
      "payable": false,
      "stateMutability": "view",
      "type": "function",
      "signature": "0x16020273"
    }
  ],
  "bytecode": "0x608060405234801561001057600080fd5b5061041a806100206000396000f3fe60806040526004361061004c576000357c0100000000000000000000000000000000000000000000000000000000900463ffffffff1680631602027314610051578063fa052fac1461012d575b600080fd5b34801561005d57600080fd5b506101176004803603602081101561007457600080fd5b810190808035906020019064010000000081111561009157600080fd5b8201836020820111156100a357600080fd5b803590602001918460018302840111640100000000831117156100c557600080fd5b91908080601f016020809104026020016040519081016040528093929190818152602001838380828437600081840152601f19601f8201169050808301925050505050505091929192905050506101ff565b6040518082815260200191505060405180910390f35b34801561013957600080fd5b506101fd6004803603604081101561015057600080fd5b810190808035906020019064010000000081111561016d57600080fd5b82018360208201111561017f57600080fd5b803590602001918460018302840111640100000000831117156101a157600080fd5b91908080601f016020809104026020016040519081016040528093929190818152602001838380828437600081840152601f19601f82011690508083019250505050505050919291929080359060200190929190505050610273565b005b600080826040518082805190602001908083835b6020831015156102385780518252602082019150602081019050602083039250610213565b6001836020036101000a0380198251168184511680821785525050505050509050019150509081526020016040518091039020549050919050565b600080836040518082805190602001908083835b6020831015156102ac5780518252602082019150602081019050602083039250610287565b6001836020036101000a038019825116818451168082178552505050505050905001915050908152602001604051809103902054131561037a576040517f08c379a000000000000000000000000000000000000000000000000000000000815260040180806020018281038252602e8152602001807f53636f726520776974682070726f7669646564206e616d652077617320616c7281526020017f65616479207265636f726465642e00000000000000000000000000000000000081525060400191505060405180910390fd5b806000836040518082805190602001908083835b6020831015156103b3578051825260208201915060208101905060208303925061038e565b6001836020036101000a038019825116818451168082178552505050505050905001915050908152602001604051809103902081905550505056fea165627a7a723058204cce593adc5f90e6dab1c6378d7e8684313482c9f457c1de315e4ac666a9f6dc0029",
  "source": "pragma solidity >=0.4.0 <0.6.0;\n\ncontract ScoreTracker {\n    mapping(string => int) ScoresRecorded;\n\n    function addScore(string memory name, int score) public {\n        //Check if already exists \n        if (ScoresRecorded[name]>0) {\n            // revert the transaction, because we should only have uniquely identifed scores keys\n            revert(\"Score with provided name was already recorded.\");\n        }\n\n        ScoresRecorded[name] = score;\n    }\n\n    function getScore(string memory name) public view returns (int) {\n        return ScoresRecorded[name];\n    }\n}",
  "sourcePath": "/home/ysfdev/projects/blockchain/ethereum-contracts-new/contracts/ScoreTracker.sol",
  "compiler": {
    "name": "solc",
    "version": "0.5.0+commit.1d4f565a.Emscripten.clang"
  },
  "schemaVersion": "3.0.1",
  "updatedAt": "2019-01-05T23:57:51.742Z",
  "devdoc": {
    "methods": {}
  },
  "userdoc": {
    "methods": {}
  }
}