{
  "contractName": "SimpleStorage",
  "abi": [
    {
      "constant": false,
      "inputs": [
        {
          "name": "x",
          "type": "uint256"
        }
      ],
      "name": "set",
      "outputs": [],
      "payable": false,
      "stateMutability": "nonpayable",
      "type": "function",
      "signature": "0x60fe47b1"
    },
    {
      "constant": true,
      "inputs": [],
      "name": "get",
      "outputs": [
        {
          "name": "",
          "type": "uint256"
        }
      ],
      "payable": false,
      "stateMutability": "view",
      "type": "function",
      "signature": "0x6d4ce63c"
    },
    {
      "constant": false,
      "inputs": [
        {
          "name": "n",
          "type": "uint256"
        }
      ],
      "name": "increment",
      "outputs": [],
      "payable": false,
      "stateMutability": "nonpayable",
      "type": "function",
      "signature": "0x7cf5dab0"
    },
    {
      "constant": false,
      "inputs": [
        {
          "name": "n",
          "type": "uint256"
        }
      ],
      "name": "decrement",
      "outputs": [],
      "payable": false,
      "stateMutability": "nonpayable",
      "type": "function",
      "signature": "0x3a9ebefd"
    }
  ],
  "bytecode": "0x608060405234801561001057600080fd5b506101a6806100206000396000f3fe608060405260043610610062576000357c0100000000000000000000000000000000000000000000000000000000900463ffffffff1680633a9ebefd1461006757806360fe47b1146100a25780636d4ce63c146100dd5780637cf5dab014610108575b600080fd5b34801561007357600080fd5b506100a06004803603602081101561008a57600080fd5b8101908080359060200190929190505050610143565b005b3480156100ae57600080fd5b506100db600480360360208110156100c557600080fd5b8101908080359060200190929190505050610155565b005b3480156100e957600080fd5b506100f261015f565b6040518082815260200191505060405180910390f35b34801561011457600080fd5b506101416004803603602081101561012b57600080fd5b8101908080359060200190929190505050610168565b005b80600080828254039250508190555050565b8060008190555050565b60008054905090565b8060008082825401925050819055505056fea165627a7a7230582086623467849a8b4c52b71de317ad254c927ab8a512880bcab9bf356290d1e0c70029",
  "source": "pragma solidity >=0.4.0 <0.6.0;\n\ncontract SimpleStorage {\n    uint storedData;\n\n    function set(uint x) public {\n        storedData = x;\n    }\n\n    function get() public view returns (uint) {\n        return storedData;\n    }\n    \n    function increment(uint n) public {\n        storedData += n;\n    }\n    \n    function decrement(uint n) public {\n        storedData -= n;\n    }\n}\n",
  "sourcePath": "/home/ysfdev/projects/blockchain/ethereum-contracts-new/contracts/SimpleStorage.sol",
  "compiler": {
    "name": "solc",
    "version": "0.5.0+commit.1d4f565a.Emscripten.clang"
  },
  "schemaVersion": "3.0.1",
  "updatedAt": "2019-01-05T23:57:51.741Z",
  "devdoc": {
    "methods": {}
  },
  "userdoc": {
    "methods": {}
  }
}